{
  "transactions": [
    {
      "hash": "0x0301390fe8365641ef291b9835dcd8a4db7ad7d7731e0f94994a061eef9fd7a6",
      "transactionType": "CALL",
      "contractName": "ControlStructureTest",
      "contractAddress": "0xC7f2Cf4845C6db0e1a1e91ED41Bcd0FcC1b0E141",
      "function": "testForLoop(uint256)",
      "arguments": [
        "10"
      ],
      "transaction": {
        "type": "0x00",
        "from": "0xf39fd6e51aad88f6f4ce6ab8827279cfffb92266",
        "to": "0xc7f2cf4845c6db0e1a1e91ed41bcd0fcc1b0e141",
        "gas": "0x7267",
        "value": "0x0",
        "data": "0x443c58ef000000000000000000000000000000000000000000000000000000000000000a",
        "nonce": "0x5d"
      },
      "additionalContracts": [],
      "isFixedGasLimit": false
    },
    {
      "hash": "0x0720f9c68fa76c6e4cd7e857ffe8f3dee0a025f1cd3ab81b1f7b1225310938a9",
      "transactionType": "CALL",
      "contractName": "ControlStructureTest",
      "contractAddress": "0xC7f2Cf4845C6db0e1a1e91ED41Bcd0FcC1b0E141",
      "function": "testWhileLoop(uint256)",
      "arguments": [
        "10"
      ],
      "transaction": {
        "type": "0x00",
        "from": "0xf39fd6e51aad88f6f4ce6ab8827279cfffb92266",
        "to": "0xc7f2cf4845c6db0e1a1e91ed41bcd0fcc1b0e141",
        "gas": "0x7267",
        "value": "0x0",
        "data": "0x66ecc61a000000000000000000000000000000000000000000000000000000000000000a",
        "nonce": "0x5e"
      },
      "additionalContracts": [],
      "isFixedGasLimit": false
    },
    {
      "hash": "0x016f3bf4ca14969f4ddf14b2cf075e9636352ae4b49d7aa586873c998f25ef5c",
      "transactionType": "CALL",
      "contractName": "ControlStructureTest",
      "contractAddress": "0xC7f2Cf4845C6db0e1a1e91ED41Bcd0FcC1b0E141",
      "function": "testForLoop(uint256)",
      "arguments": [
        "100"
      ],
      "transaction": {
        "type": "0x00",
        "from": "0xf39fd6e51aad88f6f4ce6ab8827279cfffb92266",
        "to": "0xc7f2cf4845c6db0e1a1e91ed41bcd0fcc1b0e141",
        "gas": "0x7267",
        "value": "0x0",
        "data": "0x443c58ef0000000000000000000000000000000000000000000000000000000000000064",
        "nonce": "0x5f"
      },
      "additionalContracts": [],
      "isFixedGasLimit": false
    },
    {
      "hash": "0x07e877bc6422b9c2282de490eb9595b17f4ed4a8b65f6d57b35fbcf20f1c0d53",
      "transactionType": "CALL",
      "contractName": "ControlStructureTest",
      "contractAddress": "0xC7f2Cf4845C6db0e1a1e91ED41Bcd0FcC1b0E141",
      "function": "testWhileLoop(uint256)",
      "arguments": [
        "100"
      ],
      "transaction": {
        "type": "0x00",
        "from": "0xf39fd6e51aad88f6f4ce6ab8827279cfffb92266",
        "to": "0xc7f2cf4845c6db0e1a1e91ed41bcd0fcc1b0e141",
        "gas": "0x7267",
        "value": "0x0",
        "data": "0x66ecc61a0000000000000000000000000000000000000000000000000000000000000064",
        "nonce": "0x60"
      },
      "additionalContracts": [],
      "isFixedGasLimit": false
    },
    {
      "hash": "0x04b43c8f5d45806d0ed61b57ae5ff31198d7ab8ea243924c9d441ba6435facdf",
      "transactionType": "CALL",
      "contractName": "ControlStructureTest",
      "contractAddress": "0xC7f2Cf4845C6db0e1a1e91ED41Bcd0FcC1b0E141",
      "function": "testForLoop(uint256)",
      "arguments": [
        "5000"
      ],
      "transaction": {
        "type": "0x00",
        "from": "0xf39fd6e51aad88f6f4ce6ab8827279cfffb92266",
        "to": "0xc7f2cf4845c6db0e1a1e91ed41bcd0fcc1b0e141",
        "gas": "0x7278",
        "value": "0x0",
        "data": "0x443c58ef0000000000000000000000000000000000000000000000000000000000001388",
        "nonce": "0x61"
      },
      "additionalContracts": [],
      "isFixedGasLimit": false
    },
    {
      "hash": "0x0194992e261668686488fde25a3bab15a9e3f77d4e7850ba65eb2cbcd29277f7",
      "transactionType": "CALL",
      "contractName": "ControlStructureTest",
      "contractAddress": "0xC7f2Cf4845C6db0e1a1e91ED41Bcd0FcC1b0E141",
      "function": "testWhileLoop(uint256)",
      "arguments": [
        "5000"
      ],
      "transaction": {
        "type": "0x00",
        "from": "0xf39fd6e51aad88f6f4ce6ab8827279cfffb92266",
        "to": "0xc7f2cf4845c6db0e1a1e91ed41bcd0fcc1b0e141",
        "gas": "0x7278",
        "value": "0x0",
        "data": "0x66ecc61a0000000000000000000000000000000000000000000000000000000000001388",
        "nonce": "0x62"
      },
      "additionalContracts": [],
      "isFixedGasLimit": false
    }
  ],
  "receipts": [
    {
      "transactionHash": "0x0301390fe8365641ef291b9835dcd8a4db7ad7d7731e0f94994a061eef9fd7a6",
      "transactionIndex": "0x0",
      "blockHash": "0x040d03510e78199dee0a3214b8d5018288b6aa785ceedb719a0252f565c24ca4",
      "blockNumber": "0x6d",
      "from": "0xf39Fd6e51aad88F6F4ce6aB8827279cffFb92266",
      "to": "0xC7f2Cf4845C6db0e1a1e91ED41Bcd0FcC1b0E141",
      "cumulativeGasUsed": "0xf4240",
      "gasUsed": "0x7a120",
      "contractAddress": null,
      "logs": [],
      "status": "0x1",
      "logsBloom": "0x00000000000000000000000000000000000000000000000000000000000000000000000000000000000000000000000000000000000000000000000000000000000000000000000000000000000000000000000000000000000000000000000000000000000000000000000000000000000000000000000000000000000000000000000000000000000000000000000000000000000000000000000000000000000000000000000000000000000000000000000000000000000000000000000000000000000000000000000000000000000000000000000000000000000000000000000000000000000000000000000000000000000000000000000000000000",
      "type": "0x0",
      "effectiveGasPrice": "0xf4240"
    },
    {
      "transactionHash": "0x0720f9c68fa76c6e4cd7e857ffe8f3dee0a025f1cd3ab81b1f7b1225310938a9",
      "transactionIndex": "0x0",
      "blockHash": "0x012542b8c2e76d9c9e470150407a04f1e3dc7ba6435835b00ea4479431544953",
      "blockNumber": "0x6e",
      "from": "0xf39Fd6e51aad88F6F4ce6aB8827279cffFb92266",
      "to": "0xC7f2Cf4845C6db0e1a1e91ED41Bcd0FcC1b0E141",
      "cumulativeGasUsed": "0xf4240",
      "gasUsed": "0x7a120",
      "contractAddress": null,
      "logs": [],
      "status": "0x1",
      "logsBloom": "0x00000000000000000000000000000000000000000000000000000000000000000000000000000000000000000000000000000000000000000000000000000000000000000000000000000000000000000000000000000000000000000000000000000000000000000000000000000000000000000000000000000000000000000000000000000000000000000000000000000000000000000000000000000000000000000000000000000000000000000000000000000000000000000000000000000000000000000000000000000000000000000000000000000000000000000000000000000000000000000000000000000000000000000000000000000000",
      "type": "0x0",
      "effectiveGasPrice": "0xf4240"
    },
    {
      "transactionHash": "0x016f3bf4ca14969f4ddf14b2cf075e9636352ae4b49d7aa586873c998f25ef5c",
      "transactionIndex": "0x0",
      "blockHash": "0x009dad8fa7f99b43bdcea4d43708f0bd589e9fece02be81d96191d9d11773fcc",
      "blockNumber": "0x6f",
      "from": "0xf39Fd6e51aad88F6F4ce6aB8827279cffFb92266",
      "to": "0xC7f2Cf4845C6db0e1a1e91ED41Bcd0FcC1b0E141",
      "cumulativeGasUsed": "0xf4240",
      "gasUsed": "0x7a120",
      "contractAddress": null,
      "logs": [],
      "status": "0x1",
      "logsBloom": "0x00000000000000000000000000000000000000000000000000000000000000000000000000000000000000000000000000000000000000000000000000000000000000000000000000000000000000000000000000000000000000000000000000000000000000000000000000000000000000000000000000000000000000000000000000000000000000000000000000000000000000000000000000000000000000000000000000000000000000000000000000000000000000000000000000000000000000000000000000000000000000000000000000000000000000000000000000000000000000000000000000000000000000000000000000000000",
      "type": "0x0",
      "effectiveGasPrice": "0xf4240"
    },
    {
      "transactionHash": "0x07e877bc6422b9c2282de490eb9595b17f4ed4a8b65f6d57b35fbcf20f1c0d53",
      "transactionIndex": "0x0",
      "blockHash": "0x024e80c414e127624b8bfc265abddc1b39b38cc5dedfc62026d1a1969e38de0e",
      "blockNumber": "0x70",
      "from": "0xf39Fd6e51aad88F6F4ce6aB8827279cffFb92266",
      "to": "0xC7f2Cf4845C6db0e1a1e91ED41Bcd0FcC1b0E141",
      "cumulativeGasUsed": "0xf4240",
      "gasUsed": "0x7a120",
      "contractAddress": null,
      "logs": [],
      "status": "0x1",
      "logsBloom": "0x00000000000000000000000000000000000000000000000000000000000000000000000000000000000000000000000000000000000000000000000000000000000000000000000000000000000000000000000000000000000000000000000000000000000000000000000000000000000000000000000000000000000000000000000000000000000000000000000000000000000000000000000000000000000000000000000000000000000000000000000000000000000000000000000000000000000000000000000000000000000000000000000000000000000000000000000000000000000000000000000000000000000000000000000000000000",
      "type": "0x0",
      "effectiveGasPrice": "0xf4240"
    },
    {
      "transactionHash": "0x04b43c8f5d45806d0ed61b57ae5ff31198d7ab8ea243924c9d441ba6435facdf",
      "transactionIndex": "0x0",
      "blockHash": "0x07b08b3fb49cf747729b46094da6c7638da3ad26fbda471e4389f930920fb3df",
      "blockNumber": "0x71",
      "from": "0xf39Fd6e51aad88F6F4ce6aB8827279cffFb92266",
      "to": "0xC7f2Cf4845C6db0e1a1e91ED41Bcd0FcC1b0E141",
      "cumulativeGasUsed": "0xf4240",
      "gasUsed": "0x7a120",
      "contractAddress": null,
      "logs": [],
      "status": "0x1",
      "logsBloom": "0x00000000000000000000000000000000000000000000000000000000000000000000000000000000000000000000000000000000000000000000000000000000000000000000000000000000000000000000000000000000000000000000000000000000000000000000000000000000000000000000000000000000000000000000000000000000000000000000000000000000000000000000000000000000000000000000000000000000000000000000000000000000000000000000000000000000000000000000000000000000000000000000000000000000000000000000000000000000000000000000000000000000000000000000000000000000",
      "type": "0x0",
      "effectiveGasPrice": "0xf4240"
    },
    {
      "transactionHash": "0x0194992e261668686488fde25a3bab15a9e3f77d4e7850ba65eb2cbcd29277f7",
      "transactionIndex": "0x0",
      "blockHash": "0x023bdd21a2b00b6ee85b325345760098c3d063ef5b15aeecf65f4459ffb789cd",
      "blockNumber": "0x72",
      "from": "0xf39Fd6e51aad88F6F4ce6aB8827279cffFb92266",
      "to": "0xC7f2Cf4845C6db0e1a1e91ED41Bcd0FcC1b0E141",
      "cumulativeGasUsed": "0xf4240",
      "gasUsed": "0x7a120",
      "contractAddress": null,
      "logs": [],
      "status": "0x1",
      "logsBloom": "0x00000000000000000000000000000000000000000000000000000000000000000000000000000000000000000000000000000000000000000000000000000000000000000000000000000000000000000000000000000000000000000000000000000000000000000000000000000000000000000000000000000000000000000000000000000000000000000000000000000000000000000000000000000000000000000000000000000000000000000000000000000000000000000000000000000000000000000000000000000000000000000000000000000000000000000000000000000000000000000000000000000000000000000000000000000000",
      "type": "0x0",
      "effectiveGasPrice": "0xf4240"
    }
  ],
  "libraries": [],
  "pending": [],
  "returns": {},
  "timestamp": 1692778355,
  "chain": 1263227476,
  "multi": false,
  "commit": "f1b2da2"
}