{
  "transactions": [
    {
      "hash": "0x05189fe6feafea6cbef1fc77743d0f9ec683b5a490520bcc66f906c70c26b45e",
      "transactionType": "CALL",
      "contractName": null,
      "contractAddress": null,
      "function": null,
      "arguments": null,
      "transaction": {
        "type": "0x00",
        "from": "0xf39fd6e51aad88f6f4ce6ab8827279cfffb92266",
        "to": "0xc7f2cf4845c6db0e1a1e91ed41bcd0fcc1b0e141",
        "gas": "0x714d",
        "value": "0x38d7ea4c68000",
        "data": "0x",
        "nonce": "0x57"
      },
      "additionalContracts": [],
      "isFixedGasLimit": false
    },
    {
      "hash": "0x0464c5fd0a6ded064c57a6200c652e976c5b11b8f96205329785d8bd67c2a7cd",
      "transactionType": "CALL",
      "contractName": "Address",
      "contractAddress": "0xC7f2Cf4845C6db0e1a1e91ED41Bcd0FcC1b0E141",
      "function": "getCode():(bytes)",
      "arguments": [],
      "transaction": {
        "type": "0x00",
        "from": "0xf39fd6e51aad88f6f4ce6ab8827279cfffb92266",
        "to": "0xc7f2cf4845c6db0e1a1e91ed41bcd0fcc1b0e141",
        "gas": "0x71a6",
        "value": "0x0",
        "data": "0xea879634",
        "nonce": "0x58"
      },
      "additionalContracts": [],
      "isFixedGasLimit": false
    },
    {
      "hash": "0x05f25bb021b7ac71fb8c68c2dd17c68800e53712d285d9ba8ddbc966bcad75c0",
      "transactionType": "CALL",
      "contractName": "Address",
      "contractAddress": "0xC7f2Cf4845C6db0e1a1e91ED41Bcd0FcC1b0E141",
      "function": "sendEther():(bool)",
      "arguments": [],
      "transaction": {
        "type": "0x00",
        "from": "0xf39fd6e51aad88f6f4ce6ab8827279cfffb92266",
        "to": "0xc7f2cf4845c6db0e1a1e91ed41bcd0fcc1b0e141",
        "gas": "0x71a6",
        "value": "0x38d7ea4c68000",
        "data": "0x0e29df22",
        "nonce": "0x59"
      },
      "additionalContracts": [],
      "isFixedGasLimit": false
    },
    {
      "hash": "0x01b2fd53b1be84e044f8e30d4abc00952438b9e52e303645abb4594b1914aad4",
      "transactionType": "CALL",
      "contractName": "Address",
      "contractAddress": "0xC7f2Cf4845C6db0e1a1e91ED41Bcd0FcC1b0E141",
      "function": "transferEther(address)",
      "arguments": [
        "0x5b73C5498c1E3b4dbA84de0F1833c4a029d90519"
      ],
      "transaction": {
        "type": "0x00",
        "from": "0xf39fd6e51aad88f6f4ce6ab8827279cfffb92266",
        "to": "0xc7f2cf4845c6db0e1a1e91ed41bcd0fcc1b0e141",
        "gas": "0x73a2",
        "value": "0x0",
        "data": "0x6b55e9910000000000000000000000005b73c5498c1e3b4dba84de0f1833c4a029d90519",
        "nonce": "0x5a"
      },
      "additionalContracts": [],
      "isFixedGasLimit": false
    }
  ],
  "receipts": [
    {
      "transactionHash": "0x05189fe6feafea6cbef1fc77743d0f9ec683b5a490520bcc66f906c70c26b45e",
      "transactionIndex": "0x0",
      "blockHash": "0x06218e46557fd2a5d0b6889f31e1cc1bcb2b7bb543e8eabb9539d8ba45f8d78f",
      "blockNumber": "0x67",
      "from": "0xf39Fd6e51aad88F6F4ce6aB8827279cffFb92266",
      "to": "0xC7f2Cf4845C6db0e1a1e91ED41Bcd0FcC1b0E141",
      "cumulativeGasUsed": "0xf4240",
      "gasUsed": "0x7a120",
      "contractAddress": null,
      "logs": [],
      "status": "0x1",
      "logsBloom": "0x00000000000000000000000000000000000000000000000000000000000000000000000000000000000000000000000000000000000000000000000000000000000000000000000000000000000000000000000000000000000000000000000000000000000000000000000000000000000000000000000000000000000000000000000000000000000000000000000000000000000000000000000000000000000000000000000000000000000000000000000000000000000000000000000000000000000000000000000000000000000000000000000000000000000000000000000000000000000000000000000000000000000000000000000000000000",
      "type": "0x0",
      "effectiveGasPrice": "0xf4240"
    },
    {
      "transactionHash": "0x0464c5fd0a6ded064c57a6200c652e976c5b11b8f96205329785d8bd67c2a7cd",
      "transactionIndex": "0x0",
      "blockHash": "0x06246e34920dbc250faaf9bcb3014cd5990347d4c828e83664d2589f90b0fcf5",
      "blockNumber": "0x68",
      "from": "0xf39Fd6e51aad88F6F4ce6aB8827279cffFb92266",
      "to": "0xC7f2Cf4845C6db0e1a1e91ED41Bcd0FcC1b0E141",
      "cumulativeGasUsed": "0xf4240",
      "gasUsed": "0x7a120",
      "contractAddress": null,
      "logs": [],
      "status": "0x1",
      "logsBloom": "0x00000000000000000000000000000000000000000000000000000000000000000000000000000000000000000000000000000000000000000000000000000000000000000000000000000000000000000000000000000000000000000000000000000000000000000000000000000000000000000000000000000000000000000000000000000000000000000000000000000000000000000000000000000000000000000000000000000000000000000000000000000000000000000000000000000000000000000000000000000000000000000000000000000000000000000000000000000000000000000000000000000000000000000000000000000000",
      "type": "0x0",
      "effectiveGasPrice": "0xf4240"
    },
    {
      "transactionHash": "0x05f25bb021b7ac71fb8c68c2dd17c68800e53712d285d9ba8ddbc966bcad75c0",
      "transactionIndex": "0x0",
      "blockHash": "0x00b1b2008c1ecf4a771491b2f58d9c18587b3e89021d2cb4cc644224baa80305",
      "blockNumber": "0x69",
      "from": "0xf39Fd6e51aad88F6F4ce6aB8827279cffFb92266",
      "to": "0xC7f2Cf4845C6db0e1a1e91ED41Bcd0FcC1b0E141",
      "cumulativeGasUsed": "0xf4240",
      "gasUsed": "0x7a120",
      "contractAddress": null,
      "logs": [],
      "status": "0x1",
      "logsBloom": "0x00000000000000000000000000000000000000000000000000000000000000000000000000000000000000000000000000000000000000000000000000000000000000000000000000000000000000000000000000000000000000000000000000000000000000000000000000000000000000000000000000000000000000000000000000000000000000000000000000000000000000000000000000000000000000000000000000000000000000000000000000000000000000000000000000000000000000000000000000000000000000000000000000000000000000000000000000000000000000000000000000000000000000000000000000000000",
      "type": "0x0",
      "effectiveGasPrice": "0xf4240"
    },
    {
      "transactionHash": "0x01b2fd53b1be84e044f8e30d4abc00952438b9e52e303645abb4594b1914aad4",
      "transactionIndex": "0x0",
      "blockHash": "0x033484f255435bfea3d19d9df05d74298990b5da4b062bf3bcb39c2d71827a53",
      "blockNumber": "0x6a",
      "from": "0xf39Fd6e51aad88F6F4ce6aB8827279cffFb92266",
      "to": "0xC7f2Cf4845C6db0e1a1e91ED41Bcd0FcC1b0E141",
      "cumulativeGasUsed": "0xf4240",
      "gasUsed": "0x7a120",
      "contractAddress": null,
      "logs": [],
      "status": "0x1",
      "logsBloom": "0x00000000000000000000000000000000000000000000000000000000000000000000000000000000000000000000000000000000000000000000000000000000000000000000000000000000000000000000000000000000000000000000000000000000000000000000000000000000000000000000000000000000000000000000000000000000000000000000000000000000000000000000000000000000000000000000000000000000000000000000000000000000000000000000000000000000000000000000000000000000000000000000000000000000000000000000000000000000000000000000000000000000000000000000000000000000",
      "type": "0x0",
      "effectiveGasPrice": "0xf4240"
    }
  ],
  "libraries": [],
  "pending": [],
  "returns": {},
  "timestamp": 1692778342,
  "chain": 1263227476,
  "multi": false,
  "commit": "f1b2da2"
}